{
  "contractName": "Election",
  "abi": [
    {
      "constant": true,
      "inputs": [],
      "name": "candidatesCount",
      "outputs": [
        {
          "name": "",
          "type": "uint256"
        }
      ],
      "payable": false,
      "stateMutability": "view",
      "type": "function"
    },
    {
      "constant": true,
      "inputs": [
        {
          "name": "",
          "type": "uint256"
        }
      ],
      "name": "candidates",
      "outputs": [
        {
          "name": "id",
          "type": "uint256"
        },
        {
          "name": "name",
          "type": "string"
        },
        {
          "name": "voteCount",
          "type": "uint256"
        }
      ],
      "payable": false,
      "stateMutability": "view",
      "type": "function"
    },
    {
      "constant": true,
      "inputs": [
        {
          "name": "",
          "type": "address"
        }
      ],
      "name": "voters",
      "outputs": [
        {
          "name": "",
          "type": "bool"
        }
      ],
      "payable": false,
      "stateMutability": "view",
      "type": "function"
    },
    {
      "inputs": [],
      "payable": false,
      "stateMutability": "nonpayable",
      "type": "constructor"
    },
    {
      "anonymous": false,
      "inputs": [
        {
          "indexed": true,
          "name": "_candidateId",
          "type": "uint256"
        }
      ],
      "name": "votedEvent",
      "type": "event"
    },
    {
      "anonymous": false,
      "inputs": [
        {
          "indexed": true,
          "name": "_name",
          "type": "string"
        }
      ],
      "name": "addEvent",
      "type": "event"
    },
    {
      "anonymous": false,
      "inputs": [
        {
          "indexed": true,
          "name": "_candidateId",
          "type": "uint256"
        }
      ],
      "name": "deleteEvent",
      "type": "event"
    },
    {
      "constant": false,
      "inputs": [
        {
          "name": "_name",
          "type": "string"
        }
      ],
      "name": "addCandidate",
      "outputs": [
        {
          "name": "",
          "type": "string"
        }
      ],
      "payable": false,
      "stateMutability": "nonpayable",
      "type": "function"
    },
    {
      "constant": false,
      "inputs": [
        {
          "name": "_candidateId",
          "type": "uint256"
        }
      ],
      "name": "deleteCandidate",
      "outputs": [
        {
          "name": "",
          "type": "string"
        }
      ],
      "payable": false,
      "stateMutability": "nonpayable",
      "type": "function"
    },
    {
      "constant": false,
      "inputs": [
        {
          "name": "_candidateId",
          "type": "uint256"
        }
      ],
      "name": "vote",
      "outputs": [
        {
          "name": "",
          "type": "string"
        }
      ],
      "payable": false,
      "stateMutability": "nonpayable",
      "type": "function"
    }
  ],
  "bytecode": "0x608060405234801561001057600080fd5b5061005e6040805190810160405280600b81526020017f43616e64696461746520310000000000000000000000000000000000000000008152506100b2640100000000026401000000009004565b506100ac6040805190810160405280600b81526020017f43616e64696461746520320000000000000000000000000000000000000000008152506100b2640100000000026401000000009004565b5061029f565b6060600260008154809291906001019190505550606060405190810160405280600254815260200183815260200160008152506001600060025481526020019081526020016000206000820151816000015560208201518160010190805190602001906101209291906101fa565b5060408201518160020155905050816040518082805190602001908083835b602083101515610164578051825260208201915060208101905060208303925061013f565b6001836020036101000a03801982511681845116808217855250505050505090500191505060405180910390207ffeaa3394626e6980c250ba082b4a3faae2e1157d0edacfc7514538999dc023f860405160405180910390a26040805190810160405280600781526020017f73756363657373000000000000000000000000000000000000000000000000008152509050919050565b828054600181600116156101000203166002900490600052602060002090601f016020900481019282601f1061023b57805160ff1916838001178555610269565b82800160010185558215610269579182015b8281111561026857825182559160200191906001019061024d565b5b509050610276919061027a565b5090565b61029c91905b80821115610298576000816000905550600101610280565b5090565b90565b6108ec806102ae6000396000f300608060405260043610610078576000357c0100000000000000000000000000000000000000000000000000000000900463ffffffff1680630121b93f1461007d5780631e620cd4146101235780632d35a8a2146101c95780633477ee2e146101f4578063462e91ec146102a8578063a3ec138d1461038a575b600080fd5b34801561008957600080fd5b506100a8600480360381019080803590602001909291905050506103e5565b6040518080602001828103825283818151815260200191508051906020019080838360005b838110156100e85780820151818401526020810190506100cd565b50505050905090810190601f1680156101155780820380516001836020036101000a031916815260200191505b509250505060405180910390f35b34801561012f57600080fd5b5061014e600480360381019080803590602001909291905050506104eb565b6040518080602001828103825283818151815260200191508051906020019080838360005b8381101561018e578082015181840152602081019050610173565b50505050905090810190601f1680156101bb5780820380516001836020036101000a031916815260200191505b509250505060405180910390f35b3480156101d557600080fd5b506101de6105a3565b6040518082815260200191505060405180910390f35b34801561020057600080fd5b5061021f600480360381019080803590602001909291905050506105a9565b6040518084815260200180602001838152602001828103825284818151815260200191508051906020019080838360005b8381101561026b578082015181840152602081019050610250565b50505050905090810190601f1680156102985780820380516001836020036101000a031916815260200191505b5094505050505060405180910390f35b3480156102b457600080fd5b5061030f600480360381019080803590602001908201803590602001908080601f016020809104026020016040519081016040528093929190818152602001838380828437820191505050505050919291929050505061066b565b6040518080602001828103825283818151815260200191508051906020019080838360005b8381101561034f578082015181840152602081019050610334565b50505050905090810190601f16801561037c5780820380516001836020036101000a031916815260200191505b509250505060405180910390f35b34801561039657600080fd5b506103cb600480360381019080803573ffffffffffffffffffffffffffffffffffffffff1690602001909291905050506107b3565b604051808215151515815260200191505060405180910390f35b60606000821180156103f957506002548211155b151561040457600080fd5b60016000803373ffffffffffffffffffffffffffffffffffffffff1673ffffffffffffffffffffffffffffffffffffffff16815260200190815260200160002060006101000a81548160ff0219169083151502179055506001600083815260200190815260200160002060020160008154809291906001019190505550817ffff3c900d938d21d0990d786e819f29b8d05c1ef587b462b939609625b684b1660405160405180910390a26040805190810160405280600781526020017f73756363657373000000000000000000000000000000000000000000000000008152509050919050565b60606001600060018403815260200190815260200160002060008082016000905560018201600061051c91906107d3565b6002820160009055505060026000815480929190600190039190505550817ff8749a58110b0ef1ef5e2441d79e97fd6f83692ef2553f4c058b2e8e54754de760405160405180910390a26040805190810160405280600781526020017f73756363657373000000000000000000000000000000000000000000000000008152509050919050565b60025481565b6001602052806000526040600020600091509050806000015490806001018054600181600116156101000203166002900480601f01602080910402602001604051908101604052809291908181526020018280546001816001161561010002031660029004801561065b5780601f106106305761010080835404028352916020019161065b565b820191906000526020600020905b81548152906001019060200180831161063e57829003601f168201915b5050505050908060020154905083565b6060600260008154809291906001019190505550606060405190810160405280600254815260200183815260200160008152506001600060025481526020019081526020016000206000820151816000015560208201518160010190805190602001906106d992919061081b565b5060408201518160020155905050816040518082805190602001908083835b60208310151561071d57805182526020820191506020810190506020830392506106f8565b6001836020036101000a03801982511681845116808217855250505050505090500191505060405180910390207ffeaa3394626e6980c250ba082b4a3faae2e1157d0edacfc7514538999dc023f860405160405180910390a26040805190810160405280600781526020017f73756363657373000000000000000000000000000000000000000000000000008152509050919050565b60006020528060005260406000206000915054906101000a900460ff1681565b50805460018160011615610100020316600290046000825580601f106107f95750610818565b601f016020900490600052602060002090810190610817919061089b565b5b50565b828054600181600116156101000203166002900490600052602060002090601f016020900481019282601f1061085c57805160ff191683800117855561088a565b8280016001018555821561088a579182015b8281111561088957825182559160200191906001019061086e565b5b509050610897919061089b565b5090565b6108bd91905b808211156108b95760008160009055506001016108a1565b5090565b905600a165627a7a72305820e2a22de66e81058f46fcdd7100847a54d7cd859f96d73bb65b2362078aec75db0029",
  "source": "pragma solidity 0.4.25;\n\ncontract Election {\n    // Model a Candidate\n    struct Candidate {\n        uint id;\n        string name;\n        uint voteCount;\n    }\n\n    // Store accounts that have voted\n    mapping(address => bool) public voters;\n    // Store Candidates\n    // Fetch Candidate\n    mapping(uint => Candidate) public candidates;\n    // Store Candidates Count\n    uint public candidatesCount;\n\n    // voted event\n    event votedEvent (\n        uint indexed _candidateId\n    );\n    // add event\n    event addEvent (\n        string indexed _name\n    );\n     // delete event\n    event deleteEvent (\n        uint indexed _candidateId\n    );\n\n    constructor () public {\n        addCandidate(\"Candidate 1\");\n        addCandidate(\"Candidate 2\");\n    }\n\n    function addCandidate (string _name) public returns (string) {\n        candidatesCount ++;\n        candidates[candidatesCount] = Candidate(candidatesCount, _name, 0);\n         // trigger voted event\n        emit addEvent(_name);\n        return \"success\";\n    }\n\n    function deleteCandidate (uint _candidateId) public returns (string) {\n          delete candidates[_candidateId-1];\n          candidatesCount--;          \n         // trigger voted event\n        emit deleteEvent(_candidateId);\n        return \"success\";\n    }\n\n    function vote (uint _candidateId) public returns (string) {\n        // require that they haven't voted before\n       // require(!voters[msg.sender]);\n\n        // require a valid candidate\n        require(_candidateId > 0 && _candidateId <= candidatesCount);\n\n        // record that voter has voted\n        voters[msg.sender] = true;\n\n        // update candidate vote Count\n        candidates[_candidateId].voteCount ++;\n\n        // trigger voted event\n        emit votedEvent(_candidateId);\n        return \"success\";\n    }\n}\n",
  "sourcePath": "B:/2. BLOCKCHAIN/BLOCKCHAIN APP/Workouts/8. ETH_VOTING/contracts/Election.sol",
  "compiler": {
    "name": "solc",
    "version": "0.4.25+commit.59dbf8f1.Emscripten.clang"
  },
  "schemaVersion": "3.3.0",
  "updatedAt": "2020-10-24T09:51:34.871Z",
  "networkType": "ethereum",
  "devdoc": {
    "methods": {}
  },
  "userdoc": {
    "methods": {}
  }
}